{
  "contractName": "DaoDelianApp",
  "abi": [
    {
      "constant": true,
      "inputs": [],
      "name": "owner",
      "outputs": [
        {
          "name": "",
          "type": "address"
        }
      ],
      "payable": false,
      "stateMutability": "view",
      "type": "function"
    },
    {
      "inputs": [],
      "payable": false,
      "stateMutability": "nonpayable",
      "type": "constructor"
    },
    {
      "anonymous": false,
      "inputs": [
        {
          "indexed": true,
          "name": "_owner",
          "type": "address"
        },
        {
          "indexed": true,
          "name": "_channelId",
          "type": "uint256"
        },
        {
          "indexed": false,
          "name": "_participants",
          "type": "address[]"
        }
      ],
      "name": "ChannelStart",
      "type": "event"
    },
    {
      "anonymous": false,
      "inputs": [
        {
          "indexed": true,
          "name": "_owner",
          "type": "address"
        },
        {
          "indexed": true,
          "name": "_channelId",
          "type": "uint256"
        },
        {
          "indexed": false,
          "name": "_state",
          "type": "bytes"
        }
      ],
      "name": "ChannelEnd",
      "type": "event"
    },
    {
      "constant": false,
      "inputs": [
        {
          "name": "_validationContract",
          "type": "address"
        },
        {
          "name": "_participants",
          "type": "address[]"
        }
      ],
      "name": "initialize",
      "outputs": [
        {
          "name": "",
          "type": "bytes"
        }
      ],
      "payable": false,
      "stateMutability": "nonpayable",
      "type": "function"
    },
    {
      "constant": true,
      "inputs": [
        {
          "name": "num1",
          "type": "uint256"
        },
        {
          "name": "num2",
          "type": "uint256"
        }
      ],
      "name": "getRandomSalt",
      "outputs": [
        {
          "name": "",
          "type": "bytes32"
        }
      ],
      "payable": false,
      "stateMutability": "pure",
      "type": "function"
    },
    {
      "constant": true,
      "inputs": [
        {
          "name": "_salt",
          "type": "bytes32"
        },
        {
          "name": "_value",
          "type": "string"
        },
        {
          "name": "_sender",
          "type": "address"
        }
      ],
      "name": "getHashedValue",
      "outputs": [
        {
          "name": "",
          "type": "bytes32"
        }
      ],
      "payable": false,
      "stateMutability": "pure",
      "type": "function"
    },
    {
      "constant": true,
      "inputs": [
        {
          "name": "_salt",
          "type": "bytes32"
        },
        {
          "name": "_value",
          "type": "string"
        },
        {
          "name": "_sender",
          "type": "address"
        },
        {
          "name": "_hashedMessage",
          "type": "bytes32"
        }
      ],
      "name": "isHashValueValid",
      "outputs": [
        {
          "name": "",
          "type": "bool"
        }
      ],
      "payable": false,
      "stateMutability": "view",
      "type": "function"
    },
    {
      "constant": true,
      "inputs": [
        {
          "name": "_data",
          "type": "bytes32"
        }
      ],
      "name": "getAbiEncodeAction",
      "outputs": [
        {
          "name": "",
          "type": "bytes"
        }
      ],
      "payable": false,
      "stateMutability": "pure",
      "type": "function"
    },
    {
      "constant": true,
      "inputs": [
        {
          "name": "_commitHashes",
          "type": "bytes32[]"
        }
      ],
      "name": "getAbiEncodeState",
      "outputs": [
        {
          "name": "",
          "type": "bytes"
        }
      ],
      "payable": false,
      "stateMutability": "pure",
      "type": "function"
    },
    {
      "constant": true,
      "inputs": [
        {
          "name": "encodedState",
          "type": "bytes"
        }
      ],
      "name": "isStateTerminal",
      "outputs": [
        {
          "name": "",
          "type": "bool"
        }
      ],
      "payable": false,
      "stateMutability": "pure",
      "type": "function"
    },
    {
      "constant": true,
      "inputs": [
        {
          "name": "encodedState",
          "type": "bytes"
        }
      ],
      "name": "getTurnTaker",
      "outputs": [
        {
          "name": "",
          "type": "address"
        }
      ],
      "payable": false,
      "stateMutability": "pure",
      "type": "function"
    },
    {
      "constant": true,
      "inputs": [
        {
          "name": "encodedState",
          "type": "bytes"
        },
        {
          "name": "encodedAction",
          "type": "bytes"
        },
        {
          "name": "coms",
          "type": "address[]"
        }
      ],
      "name": "applyAction",
      "outputs": [
        {
          "name": "",
          "type": "bytes"
        }
      ],
      "payable": false,
      "stateMutability": "pure",
      "type": "function"
    }
  ],
  "bytecode": "0x608060405234801561001057600080fd5b5060008054600160a060020a0319163317905561127d806100326000396000f3fe608060405234801561001057600080fd5b50600436106100bb576000357c010000000000000000000000000000000000000000000000000000000090048063718233ce11610083578063718233ce1461014f5780638da5cb5b1461016f578063918742a414610177578063946d92041461018a578063d714d9c71461019d576100bb565b806305dcf6e8146100c057806335819f20146100e9578063592aa5831461010957806359e537c11461011c5780635be579621461013c575b600080fd5b6100d36100ce366004610c67565b6101b0565b6040516100e09190611061565b60405180910390f35b6100fc6100f7366004610b4d565b6101f0565b6040516100e091906110cb565b6100fc610117366004610ca9565b610236565b61012f61012a366004610c67565b6102e5565b6040516100e09190611080565b6100fc61014a366004610b18565b610318565b61016261015d366004610d9d565b610353565b6040516100e0919061108e565b6100d36103cd565b610162610185366004610b89565b6103e9565b6100fc610198366004610ac6565b61048e565b61012f6101ab366004610bee565b61052c565b60006101ba6105e6565b6101c683850185610d68565b805160608201518151929350909181106101dc57fe5b906020019060200201519150505b92915050565b60606101fa610624565b600081526001604080830191909152608082018490525161021f9082906020016110ec565b604051602081830303815290604052915050919050565b60606102406105e6565b61024c87890189610d68565b9050610256610624565b61026286880188610d4a565b905084848080602002602001604051908101604052809392919081815260200183836020028082843760009201919091525050505060c083015260408101516102b290600163ffffffff6105cd16565b60608301526040516102c89083906020016110fa565b604051602081830303815290604052925050509695505050505050565b60006102ef6105e6565b6102fb83850185610d68565b905060038160400151600381111561030f57fe5b14949350505050565b60606103226105e6565b600260408201526001606082015282516000101561034257608081018390525b8060405160200161021f91906110fa565b6000821580159061036357508115155b15156103a4576040517f08c379a000000000000000000000000000000000000000000000000000000000815260040161039b906110dc565b60405180910390fd5b506040805191909202602080830191909152825180830382018152918301909252805191012090565b60005473ffffffffffffffffffffffffffffffffffffffff1681565b60008284836040516020018084805190602001908083835b602083106104205780518252601f199092019160209182019101610401565b51815160209384036101000a600019018019909216911617905292019485525073ffffffffffffffffffffffffffffffffffffffff929092166c0100000000000000000000000002838301525060408051601481850301815260349093019052815191012095945050505050565b60606104986105e6565b73ffffffffffffffffffffffffffffffffffffffff8481166020830152838252600060408084018290529054905160ea92839216907f9d7577bcf2ec650238ddb484dd366d970f92f713b086d55355041de2b79670a9906104fa90889061106f565b60405180910390a38160405160200161051391906110fa565b6040516020818303038152906040529250505092915050565b6040517f918742a40000000000000000000000000000000000000000000000000000000081526000908290309063918742a4906105719089908990899060040161109c565b60206040518083038186803b15801561058957600080fd5b505afa15801561059d573d6000803e3d6000fd5b505050506040513d601f19601f820116820180604052506105c19190810190610b6b565b1490505b949350505050565b6000828201838110156105df57600080fd5b9392505050565b6040805160e0810182526060815260006020820181905290918201908152602001600081526020016060815260200160608152602001606081525090565b6040805160a081019091528060008152600060208201819052604082018190526060820181905260809091015290565b60006105df8235611185565b600080601f8301841361067257600080fd5b50813567ffffffffffffffff81111561068a57600080fd5b6020830191508360208202830111156106a257600080fd5b9250929050565b6000601f820183136106ba57600080fd5b81356106cd6106c882611132565b61110b565b915081818352602084019350602081019050838560208402820111156106f257600080fd5b60005b8381101561071e57816107088882610654565b84525060209283019291909101906001016106f5565b5050505092915050565b6000601f8201831361073957600080fd5b81356107476106c882611132565b9150818183526020840193506020810190508385602084028201111561076c57600080fd5b60005b8381101561071e57816107828882610654565b845250602092830192919091019060010161076f565b6000601f820183136107a957600080fd5b81356107b76106c882611132565b915081818352602084019350602081019050838560208402820111156107dc57600080fd5b60005b8381101561071e57816107f28882610878565b84525060209283019291909101906001016107df565b6000601f8201831361081957600080fd5b81356108276106c882611132565b9150818183526020840193506020810190508385602084028201111561084c57600080fd5b60005b8381101561071e57816108628882610878565b845250602092830192919091019060010161084f565b60006105df8235611195565b60006105df8251611195565b600080601f830184136108a257600080fd5b50813567ffffffffffffffff8111156108ba57600080fd5b6020830191508360018202830111156106a257600080fd5b60006105df82356111cd565b60006105df82356111dc565b6000601f820183136108fb57600080fd5b81356109096106c882611153565b9150808252602083016020830185838301111561092557600080fd5b610930838284611201565b50505092915050565b600060a0828403121561094b57600080fd5b61095560a061110b565b9050600061096384846108d2565b825250602061097484848301610654565b602083015250604061098884828501610878565b604083015250606061099c84828501610878565b60608301525060806109b084828501610878565b60808301525092915050565b600060e082840312156109ce57600080fd5b6109d860e061110b565b9050813567ffffffffffffffff8111156109f157600080fd5b6109fd848285016106a9565b8252506020610a0e84848301610654565b6020830152506040610a22848285016108de565b6040830152506060610a3684828501610878565b606083015250608082013567ffffffffffffffff811115610a5657600080fd5b610a6284828501610798565b60808301525060a082013567ffffffffffffffff811115610a8257600080fd5b610a8e84828501610798565b60a08301525060c082013567ffffffffffffffff811115610aae57600080fd5b610aba848285016106a9565b60c08301525092915050565b60008060408385031215610ad957600080fd5b6000610ae58585610654565b925050602083013567ffffffffffffffff811115610b0257600080fd5b610b0e85828601610728565b9150509250929050565b600060208284031215610b2a57600080fd5b813567ffffffffffffffff811115610b4157600080fd5b6105c584828501610808565b600060208284031215610b5f57600080fd5b60006105c58484610878565b600060208284031215610b7d57600080fd5b60006105c58484610884565b600080600060608486031215610b9e57600080fd5b6000610baa8686610878565b935050602084013567ffffffffffffffff811115610bc757600080fd5b610bd3868287016108ea565b9250506040610be486828701610654565b9150509250925092565b60008060008060808587031215610c0457600080fd5b6000610c108787610878565b945050602085013567ffffffffffffffff811115610c2d57600080fd5b610c39878288016108ea565b9350506040610c4a87828801610654565b9250506060610c5b87828801610878565b91505092959194509250565b60008060208385031215610c7a57600080fd5b823567ffffffffffffffff811115610c9157600080fd5b610c9d85828601610890565b92509250509250929050565b60008060008060008060608789031215610cc257600080fd5b863567ffffffffffffffff811115610cd957600080fd5b610ce589828a01610890565b9650965050602087013567ffffffffffffffff811115610d0457600080fd5b610d1089828a01610890565b9450945050604087013567ffffffffffffffff811115610d2f57600080fd5b610d3b89828a01610660565b92509250509295509295509295565b600060a08284031215610d5c57600080fd5b60006105c58484610939565b600060208284031215610d7a57600080fd5b813567ffffffffffffffff811115610d9157600080fd5b6105c5848285016109bc565b60008060408385031215610db057600080fd5b6000610dbc8585610878565b9250506020610b0e85828601610878565b610dd681611185565b82525050565b6000610de782611181565b808452602084019350610df98361117b565b60005b82811015610e2957610e0f868351610dcd565b610e188261117b565b602096909601959150600101610dfc565b5093949350505050565b6000610e3e82611181565b808452602084019350610e508361117b565b60005b82811015610e2957610e66868351610dcd565b610e6f8261117b565b602096909601959150600101610e53565b6000610e8b82611181565b808452602084019350610e9d8361117b565b60005b82811015610e2957610eb3868351610ed6565b610ebc8261117b565b602096909601959150600101610ea0565b610dd681611190565b610dd681611195565b6000610eea82611181565b808452610efe81602086016020860161120d565b610f0781611239565b9093016020019392505050565b610dd6816111eb565b610dd6816111f6565b60208082527f4e756d626572732070617373656420696e2063616e6e6f7420657175616c20309082015260400190565b805160a0830190610f678482610f14565b506020820151610f7a6020850182610dcd565b506040820151610f8d6040850182610ed6565b506060820151610fa06060850182610ed6565b506080820151610fb36080850182610ed6565b50505050565b805160e080845260009190840190610fd18282610e33565b9150506020830151610fe66020860182610dcd565b506040830151610ff96040860182610f1d565b50606083015161100c6060860182610ed6565b50608083015184820360808601526110248282610e80565b91505060a083015184820360a086015261103e8282610e80565b91505060c083015184820360c08601526110588282610e33565b95945050505050565b602081016101ea8284610dcd565b602080825281016105df8184610ddc565b602081016101ea8284610ecd565b602081016101ea8284610ed6565b606081016110aa8286610ed6565b81810360208301526110bc8185610edf565b90506105c56040830184610dcd565b602080825281016105df8184610edf565b602080825281016101ea81610f26565b60a081016101ea8284610f56565b602080825281016105df8184610fb9565b60405181810167ffffffffffffffff8111828210171561112a57600080fd5b604052919050565b600067ffffffffffffffff82111561114957600080fd5b5060209081020190565b600067ffffffffffffffff82111561116a57600080fd5b506020601f91909101601f19160190565b60200190565b5190565b60006101ea826111b4565b151590565b90565b6000600282106111a457fe5b5090565b6000600482106111a457fe5b73ffffffffffffffffffffffffffffffffffffffff1690565b6000600282106111a457600080fd5b6000600482106111a457600080fd5b60006101ea82611198565b60006101ea826111a8565b82818337506000910152565b60005b83811015611228578181015183820152602001611210565b83811115610fb35750506000910152565b601f01601f19169056fea265627a7a72305820e7339688346813c5e970a0eedd3f64d77c463d2aedaaba78df9b9e4e80fbe9436c6578706572696d656e74616cf50037",
  "source": "pragma solidity ^0.5.3;\npragma experimental \"ABIEncoderV2\";\n\nimport \"./SafeMath.sol\";\nimport \"./CounterfactualApp.sol\";\n\ncontract DaoDelianApp is CounterfactualApp  {\n/* contract DaoDelianApp { */\n  using SafeMath for uint256;\n\n  /// @dev Events -- Disregarded for state transactions, stored for start & end state\n  event ChannelStart(address indexed _owner, uint256 indexed _channelId, address[] _participants);\n  event ChannelEnd(address indexed _owner, uint256 indexed _channelId, bytes _state);\n\n  /// @dev Action type keeps track of phase cycle order, these are in order of execution\n  enum ActionType {\n    PRECOMMIT,\n    REVEAL\n  }\n\n  enum Stage {\n    INITIALIZE,\n    STAKING,\n    COMMIT_REVEAL,\n    DONE\n  }\n\n  struct AppState {\n    address[] participants;\n    address validationContract;\n    Stage stage;\n    uint256 currentTurnNum;\n    /// @dev setup is for matrix/array based games\n    // Reflect the state structure defined in rules, array is used to be generic\n    // commitHash is generic hash of a turn or set of turns data, salted\n    // salts are stored in order directly with the commit hashes, and assigned upon reveal phase\n    bytes32[] commitHashes;\n    bytes32[] salts;\n    // enables out of order turns, required for validation of precommit, helpful for timeout & default state change\n    address[] committers;\n  }\n\n  struct Action {\n    ActionType actionType;\n    address callee;\n    uint256 turnNum;\n    bytes32 salt;\n    bytes32 commitHash;\n  }\n\n  address public owner;\n\n  constructor() public {\n    owner = msg.sender;\n  }\n\n  function initialize(\n      address _validationContract,\n      address[] memory _participants\n    )\n      public\n      returns (bytes memory)\n    {\n      AppState memory initState;\n      initState.validationContract = _validationContract;\n      initState.participants = _participants;\n      initState.stage = Stage.INITIALIZE;\n\n      // TODO: Generate nonce!\n      uint256 channelId = 234;\n\n      emit ChannelStart(owner, channelId, _participants);\n\n      return abi.encode(initState);\n    }\n\n  function getRandomSalt(uint256 num1, uint256 num2)\n    public\n    pure\n    returns (bytes32)\n  {\n    require(\n      num1 != 0 && num2 != 0,\n      \"Numbers passed in cannot equal 0\"\n      );\n    return keccak256(abi.encodePacked(num1 * num2));\n  }\n\n  function getHashedValue(bytes32 _salt, string memory _value, address _sender) public pure returns (bytes32) {\n    return keccak256(abi.encodePacked(_value, _salt, _sender));\n  }\n\n  /// @dev Check if inputs match original hash\n  function isHashValueValid(bytes32 _salt, string memory _value, address _sender, bytes32 _hashedMessage) public view returns (bool) {\n    return this.getHashedValue(_salt, _value, _sender) == _hashedMessage;\n  }\n\n  function getAbiEncodeAction(bytes32 _data) public pure returns (bytes memory) {\n    Action memory tmp;\n    tmp.actionType = ActionType.PRECOMMIT;\n    // TODO: this shouldn't come from here\n    tmp.turnNum = 1;\n    tmp.commitHash = _data;\n    return abi.encode(tmp);\n  }\n\n  function getAbiEncodeState(bytes32[] memory _commitHashes) public pure returns (bytes memory) {\n    AppState memory tmp;\n    tmp.stage = Stage.COMMIT_REVEAL;\n    tmp.currentTurnNum = 1;\n    // tmp.commitHashes = _commitHashes;\n    tmp.participants;\n    tmp.salts;\n    tmp.committers;\n\n    if (_commitHashes.length > 0) tmp.commitHashes = _commitHashes;\n    return abi.encode(tmp);\n  }\n\n  function isStateTerminal(bytes calldata encodedState)\n    external\n    pure\n    returns (bool)\n  {\n    AppState memory state = abi.decode(encodedState, (AppState));\n    return state.stage == Stage.DONE;\n  }\n\n  /// @dev returns current player address, based on previous committed data\n  function getTurnTaker(\n    bytes calldata encodedState\n  )\n    external\n    pure\n    returns (address)\n  {\n    AppState memory state = abi.decode(encodedState, (AppState));\n    return state.participants[state.currentTurnNum];\n  }\n\n  function applyAction(\n    bytes calldata encodedState,\n    bytes calldata encodedAction,\n    address[] calldata coms\n    // string calldata value,\n    // address participant\n  )\n    external\n    pure\n    returns (bytes memory)\n  {\n    AppState memory postState = abi.decode(encodedState, (AppState));\n    Action memory action = abi.decode(encodedAction, (Action));\n\n    // TODO:\n    /* require(this.getTurnTaker(msg.sender), \"Not your turn\"); */\n\n    // - if precommit, check only for data and store in returned state\n    // - if reveal, check state hash validity (based on salt, sender, data)\n\n    /// @dev Data PRECOMMIT Phase, allowing all subsequent parties to precommit data\n    // no validity is needed to be proved, just require precommit values\n    // requires that we keep track of participants, active participant ID\n    // TODO: Check that there isn't a precommited state at this turn num and salt!\n    // if (\n    //   action.actionType == ActionType.PRECOMMIT &&\n    // //   postState.commitHashes[action.turnNum].length == 0 &&\n    // //   action.salt.length == 0 &&\n    //   action.commitHash.length > 0\n    // ) {\n    //   postState.committers[action.turnNum] = callee;\n    //   postState.commitHashes[action.turnNum] = keccak256(encodedAction);\n    //   postState.currentTurnNum = action.turnNum.add(1);\n    // }\n    // postState.committers[action.turnNum] = participant;\n    // address[] memory coms;\n    // coms[action.turnNum] = participant;\n    postState.committers = coms;\n    // postState.commitHashes[action.turnNum] = keccak256(abi.encodePacked(encodedAction));\n    postState.currentTurnNum = action.turnNum.add(1);\n\n    /// @dev Data REVEAL Phase, Check new data and validate matches previous submission\n    // no validity is needed to be proved, just commit to state\n    // TODO: Check that there isn't a precommited state at this turn num and salt!\n    // if (\n    //   action.actionType == ActionType.REVEAL &&\n    //   action.salt.length == 0 &&\n    //   action.commitHash.length > 0\n    // ) {\n    //   // TODO: change the msg sender to previous member\n    //   require(\n    //     this.isHashValueValid(\n    //       action.salt,\n    //       value,\n    //       callee,\n    //       postState.commitHashes[action.turnNum]\n    //     ),\n    //     \"precommit data hash invalid\"\n    //   );\n    //   postState.salts[action.turnNum] = action.salt;\n    // }\n\n    return abi.encode(postState);\n  }\n\n  /* function resolve(bytes calldata encodedState, Transfer.Terms calldata terms)\n    external\n    pure\n    returns (Transfer.Transaction memory)\n  {\n    AppState memory state = abi.decode(encodedState, (AppState));\n\n    uint256[] memory amounts = new uint256[](2);\n    address[] memory to = new address[](2);\n    to[0] = state.playerAddrs[0];\n    to[1] = state.playerAddrs[1];\n    bytes32 expectedCommitHash = keccak256(\n      abi.encodePacked(state.salt, state.playerFirstNumber)\n    );\n    if (expectedCommitHash == state.commitHash) {\n      amounts = getWinningAmounts(\n        state.playerFirstNumber, state.playerSecondNumber, terms.limit\n      );\n    } else {\n      amounts[0] = 0;\n      amounts[1] = terms.limit;\n    }\n\n    bytes[] memory data = new bytes[](2);\n\n    return Transfer.Transaction(\n      terms.assetType,\n      terms.token,\n      to,\n      amounts,\n      data\n    );\n  } */\n\n}\n",
  "sourcePath": "/Users/trevorclarke/Github/daodelian/statechannels/contracts/DaoDelianApp.sol",
  "compiler": {
    "name": "solc",
    "version": "0.5.3+commit.10d17f24.Emscripten.clang"
  },
  "schemaVersion": "3.0.6",
  "updatedAt": "2019-04-20T14:37:57.607Z",
  "devdoc": {
    "methods": {
      "getTurnTaker(bytes)": {
        "details": "returns current player address, based on previous committed data"
      },
      "isHashValueValid(bytes32,string,address,bytes32)": {
        "details": "Check if inputs match original hash"
      }
    }
  },
  "userdoc": {
    "methods": {}
  }
}